{
  "_format": "hh-sol-artifact-1",
  "contractName": "Certificado",
  "sourceName": "contracts/Certificado.sol",
  "abi": [
    {
      "inputs": [
        {
          "internalType": "string",
          "name": "_nome",
          "type": "string"
        },
        {
          "internalType": "string",
          "name": "_cpf",
          "type": "string"
        },
        {
          "internalType": "string",
          "name": "_nome_do_curso",
          "type": "string"
        },
        {
          "internalType": "string",
          "name": "_descricao_curso",
          "type": "string"
        },
        {
          "internalType": "address",
          "name": "enderedo_do_estudante",
          "type": "address"
        }
      ],
      "stateMutability": "nonpayable",
      "type": "constructor"
    },
    {
      "inputs": [],
      "name": "cpf",
      "outputs": [
        {
          "internalType": "string",
          "name": "",
          "type": "string"
        }
      ],
      "stateMutability": "view",
      "type": "function"
    },
    {
      "inputs": [],
      "name": "descricao_curso",
      "outputs": [
        {
          "internalType": "string",
          "name": "",
          "type": "string"
        }
      ],
      "stateMutability": "view",
      "type": "function"
    },
    {
      "inputs": [],
      "name": "endereco_estudante",
      "outputs": [
        {
          "internalType": "address",
          "name": "",
          "type": "address"
        }
      ],
      "stateMutability": "view",
      "type": "function"
    },
    {
      "inputs": [],
      "name": "nome",
      "outputs": [
        {
          "internalType": "string",
          "name": "",
          "type": "string"
        }
      ],
      "stateMutability": "view",
      "type": "function"
    },
    {
      "inputs": [],
      "name": "nome_do_curso",
      "outputs": [
        {
          "internalType": "string",
          "name": "",
          "type": "string"
        }
      ],
      "stateMutability": "view",
      "type": "function"
    }
  ],
  "bytecode": "0x60806040523480156200001157600080fd5b5060405162000bfa38038062000bfa8339818101604052810190620000379190620002c2565b806000806101000a81548173ffffffffffffffffffffffffffffffffffffffff021916908373ffffffffffffffffffffffffffffffffffffffff160217905550846001908162000088919062000611565b5083600290816200009a919062000611565b508260039081620000ac919062000611565b508160049081620000be919062000611565b505050505050620006f8565b6000604051905090565b600080fd5b600080fd5b600080fd5b600080fd5b6000601f19601f8301169050919050565b7f4e487b7100000000000000000000000000000000000000000000000000000000600052604160045260246000fd5b6200013382620000e8565b810181811067ffffffffffffffff82111715620001555762000154620000f9565b5b80604052505050565b60006200016a620000ca565b905062000178828262000128565b919050565b600067ffffffffffffffff8211156200019b576200019a620000f9565b5b620001a682620000e8565b9050602081019050919050565b60005b83811015620001d3578082015181840152602081019050620001b6565b60008484015250505050565b6000620001f6620001f0846200017d565b6200015e565b905082815260208101848484011115620002155762000214620000e3565b5b62000222848285620001b3565b509392505050565b600082601f830112620002425762000241620000de565b5b815162000254848260208601620001df565b91505092915050565b600073ffffffffffffffffffffffffffffffffffffffff82169050919050565b60006200028a826200025d565b9050919050565b6200029c816200027d565b8114620002a857600080fd5b50565b600081519050620002bc8162000291565b92915050565b600080600080600060a08688031215620002e157620002e0620000d4565b5b600086015167ffffffffffffffff811115620003025762000301620000d9565b5b62000310888289016200022a565b955050602086015167ffffffffffffffff811115620003345762000333620000d9565b5b62000342888289016200022a565b945050604086015167ffffffffffffffff811115620003665762000365620000d9565b5b62000374888289016200022a565b935050606086015167ffffffffffffffff811115620003985762000397620000d9565b5b620003a6888289016200022a565b9250506080620003b988828901620002ab565b9150509295509295909350565b600081519050919050565b7f4e487b7100000000000000000000000000000000000000000000000000000000600052602260045260246000fd5b600060028204905060018216806200041957607f821691505b6020821081036200042f576200042e620003d1565b5b50919050565b60008190508160005260206000209050919050565b60006020601f8301049050919050565b600082821b905092915050565b600060088302620004997fffffffffffffffffffffffffffffffffffffffffffffffffffffffffffffffff826200045a565b620004a586836200045a565b95508019841693508086168417925050509392505050565b6000819050919050565b6000819050919050565b6000620004f2620004ec620004e684620004bd565b620004c7565b620004bd565b9050919050565b6000819050919050565b6200050e83620004d1565b620005266200051d82620004f9565b84845462000467565b825550505050565b600090565b6200053d6200052e565b6200054a81848462000503565b505050565b5b8181101562000572576200056660008262000533565b60018101905062000550565b5050565b601f821115620005c1576200058b8162000435565b62000596846200044a565b81016020851015620005a6578190505b620005be620005b5856200044a565b8301826200054f565b50505b505050565b600082821c905092915050565b6000620005e660001984600802620005c6565b1980831691505092915050565b6000620006018383620005d3565b9150826002028217905092915050565b6200061c82620003c6565b67ffffffffffffffff811115620006385762000637620000f9565b5b62000644825462000400565b6200065182828562000576565b600060209050601f83116001811462000689576000841562000674578287015190505b620006808582620005f3565b865550620006f0565b601f198416620006998662000435565b60005b82811015620006c3578489015182556001820191506020850194506020810190506200069c565b86831015620006e35784890151620006df601f891682620005d3565b8355505b6001600288020188555050505b505050505050565b6104f280620007086000396000f3fe608060405234801561001057600080fd5b50600436106100575760003560e01c80632deb124b1461005c57806345fd2a831461007a57806348e10cb414610098578063c16baee8146100b6578063f5a4a205146100d4575b600080fd5b6100646100f2565b60405161007191906103de565b60405180910390f35b610082610180565b60405161008f91906103de565b60405180910390f35b6100a061020e565b6040516100ad91906103de565b60405180910390f35b6100be61029c565b6040516100cb91906103de565b60405180910390f35b6100dc61032a565b6040516100e99190610441565b60405180910390f35b600180546100ff9061048b565b80601f016020809104026020016040519081016040528092919081815260200182805461012b9061048b565b80156101785780601f1061014d57610100808354040283529160200191610178565b820191906000526020600020905b81548152906001019060200180831161015b57829003601f168201915b505050505081565b6003805461018d9061048b565b80601f01602080910402602001604051908101604052809291908181526020018280546101b99061048b565b80156102065780601f106101db57610100808354040283529160200191610206565b820191906000526020600020905b8154815290600101906020018083116101e957829003601f168201915b505050505081565b6002805461021b9061048b565b80601f01602080910402602001604051908101604052809291908181526020018280546102479061048b565b80156102945780601f1061026957610100808354040283529160200191610294565b820191906000526020600020905b81548152906001019060200180831161027757829003601f168201915b505050505081565b600480546102a99061048b565b80601f01602080910402602001604051908101604052809291908181526020018280546102d59061048b565b80156103225780601f106102f757610100808354040283529160200191610322565b820191906000526020600020905b81548152906001019060200180831161030557829003601f168201915b505050505081565b60008054906101000a900473ffffffffffffffffffffffffffffffffffffffff1681565b600081519050919050565b600082825260208201905092915050565b60005b8381101561038857808201518184015260208101905061036d565b60008484015250505050565b6000601f19601f8301169050919050565b60006103b08261034e565b6103ba8185610359565b93506103ca81856020860161036a565b6103d381610394565b840191505092915050565b600060208201905081810360008301526103f881846103a5565b905092915050565b600073ffffffffffffffffffffffffffffffffffffffff82169050919050565b600061042b82610400565b9050919050565b61043b81610420565b82525050565b60006020820190506104566000830184610432565b92915050565b7f4e487b7100000000000000000000000000000000000000000000000000000000600052602260045260246000fd5b600060028204905060018216806104a357607f821691505b6020821081036104b6576104b561045c565b5b5091905056fea26469706673582212204e8f669696379e45d68f6cd77ab72de08e439a0d9cb695534355aaf7653d42fd64736f6c63430008130033",
  "linkReferences": {},
  "deployedLinkReferences": {}
}